:020000020000FC
:0200000006C038
:10000C001CC10FE50DBF02E00EBF00E809BF0027C1
:10001C000EBDF89400E00BB9539A00E000BD0BE064
:10002C0009B990E0E0E4F2E020E830E80FEC04BB22
:10003C0003E001BB00E00ABB0FEF0BBB08E60CB9F9
:10004C005E9A2FD109E60CB95E9A2BD103E005BB61
:10005C0028D1AE9A26D1AE9824D1AE9A22D1AE98A0
:10006C0020D1AE9A1ED1AE981CD102E005BB19D19D
:10007C00AE9A17D1AE9815D1AE9A13D1AE9811D1C4
:10008C0001E005BB0ED1AE9A0CD1AE980AD100E0BE
:10009C0005BB07D1AE9A05D1AE9803D10FE005BBD5
:1000AC0000D1AE9AFED0AE98FCD0622F03E800D1FE
:1000BC00C89901C031C0C999FBCF00C02395243821
:1000CC0009F420E802D1622F03E8F2D0F1CF2038F6
:1000DC0031F0213849F0223861F0233879F075E895
:1000EC0080E842E850E80FC082E870E844E850E845
:1000FC000AC083E870E846E850E805C080E875E877
:10010C0046E850E800C0E1D06FEF6DBD6FEF6CBDFD
:10011C00789461E06EBDCCCF33953138C1F2323872
:10012C0069F03338D1F0343829F1353809F0C0CFC3
:10013C0030E8CBD0622F03E8BBD0BACFF894662757
:10014C006EBD482F572FC1D0682F03E8B1D0672F51
:10015C0003E8AED0572F482FABCF70E880E86EE1A4
:10016C006DBD68EC6CBD789463E06EBD02E861E82F
:10017C009FD09ECFF89466276EBDA7D0682F03E85A
:10018C0097D003E8672F94D002E860E891D07F7095
:10019C008F705F704F700AE0409F402D450F809F1D
:1001AC00802D870F841B0AF003C01FEF81278395D6
:1001BC0010E00AE0801718F01395801BFBCF782F06
:1001CC00812F7F708F7010E3072F010F0193082F81
:1001DC00010F019393958068706803E8682F68D0CD
:1001EC0003E8672F65D0953009F062CF00E20CB9B7
:1001FC005E9A57D002E70CB95E9A53D005E60CB95B
:10020C005E9A4FD003E70CB95E9A4BD00AE30CB957
:10021C005E9A47D000E20CB95E9A43D002910CB9B9
:10022C005E9A3FD002910CB95E9A3BD000E20CB9B9
:10023C005E9A37D09A9591F73BCF313819F5002754
:10024C000EBD0FEF0DBD0FEF0CBD01E00EBD739594
:10025C007A3821F1841709F01895203839F02138B3
:10026C0041F0223849F0233851F0189575E880E8B0
:10027C00189582E870E8189583E870E8189580E87E
:10028C0075E8189500270EBD0EE10DBD08EC0CBDF0
:10029C0003E00EBD73957A3809F0189570E88395D4
:1002AC0018951AEA0FEF0A95F1F71A95D9F70895F0
:1002BC0005BBF7DFAE9AF5DFAE98F3DF65BBF1DF78
:1002CC00AE9AEFDFAE98EDDF089500E005BBE9DFF5
:1002DC00AE9AE7DFAE98E5DF01E005BBE2DFAE9A50
:0802EC00E0DFAE98DEDF0895AB
:00000001FF
